{
  "_format": "hh-sol-artifact-1",
  "contractName": "Parcelsure",
  "sourceName": "contracts/Parcelsure.sol",
  "abi": [
    {
      "inputs": [],
      "stateMutability": "nonpayable",
      "type": "constructor"
    },
    {
      "inputs": [],
      "name": "Parcelsure__PremiumNeedsToBeMoreThanZero",
      "type": "error"
    },
    {
      "inputs": [],
      "name": "Parcelsure__SendMoreETH",
      "type": "error"
    },
    {
      "anonymous": false,
      "inputs": [
        {
          "indexed": true,
          "internalType": "bytes32",
          "name": "id",
          "type": "bytes32"
        }
      ],
      "name": "ChainlinkCancelled",
      "type": "event"
    },
    {
      "anonymous": false,
      "inputs": [
        {
          "indexed": true,
          "internalType": "bytes32",
          "name": "id",
          "type": "bytes32"
        }
      ],
      "name": "ChainlinkFulfilled",
      "type": "event"
    },
    {
      "anonymous": false,
      "inputs": [
        {
          "indexed": true,
          "internalType": "bytes32",
          "name": "id",
          "type": "bytes32"
        }
      ],
      "name": "ChainlinkRequested",
      "type": "event"
    },
    {
      "anonymous": false,
      "inputs": [
        {
          "indexed": true,
          "internalType": "uint256",
          "name": "productId",
          "type": "uint256"
        },
        {
          "indexed": true,
          "internalType": "uint256",
          "name": "policyId",
          "type": "uint256"
        },
        {
          "indexed": true,
          "internalType": "address",
          "name": "insuree",
          "type": "address"
        }
      ],
      "name": "PolicyPurchased",
      "type": "event"
    },
    {
      "anonymous": false,
      "inputs": [
        {
          "indexed": false,
          "internalType": "bytes32",
          "name": "requestId",
          "type": "bytes32"
        },
        {
          "indexed": false,
          "internalType": "uint256",
          "name": "deliveryStatus",
          "type": "uint256"
        },
        {
          "indexed": false,
          "internalType": "uint256",
          "name": "transitTime",
          "type": "uint256"
        },
        {
          "indexed": false,
          "internalType": "uint256",
          "name": "avgTime",
          "type": "uint256"
        }
      ],
      "name": "ReqFulfilled",
      "type": "event"
    },
    {
      "inputs": [
        {
          "internalType": "bytes",
          "name": "checkData",
          "type": "bytes"
        }
      ],
      "name": "checkUpkeep",
      "outputs": [
        {
          "internalType": "bool",
          "name": "upkeepNeeded",
          "type": "bool"
        },
        {
          "internalType": "bytes",
          "name": "performData",
          "type": "bytes"
        }
      ],
      "stateMutability": "view",
      "type": "function"
    },
    {
      "inputs": [
        {
          "internalType": "uint256",
          "name": "productId",
          "type": "uint256"
        },
        {
          "internalType": "bytes32",
          "name": "trackingId",
          "type": "bytes32"
        },
        {
          "internalType": "uint256",
          "name": "value",
          "type": "uint256"
        }
      ],
      "name": "createPolicy",
      "outputs": [],
      "stateMutability": "payable",
      "type": "function"
    },
    {
      "inputs": [
        {
          "internalType": "uint256",
          "name": "dailyDelayPayoutPercentage",
          "type": "uint256"
        },
        {
          "internalType": "uint128",
          "name": "premiumPercentage",
          "type": "uint128"
        },
        {
          "internalType": "uint128",
          "name": "maxDelayDays",
          "type": "uint128"
        }
      ],
      "name": "createProduct",
      "outputs": [],
      "stateMutability": "payable",
      "type": "function"
    },
    {
      "inputs": [
        {
          "internalType": "bytes32",
          "name": "requestId",
          "type": "bytes32"
        },
        {
          "internalType": "uint256",
          "name": "deliveryStatus",
          "type": "uint256"
        },
        {
          "internalType": "uint256",
          "name": "transitTime",
          "type": "uint256"
        },
        {
          "internalType": "uint256",
          "name": "avgTime",
          "type": "uint256"
        }
      ],
      "name": "fulfillTrackingData",
      "outputs": [],
      "stateMutability": "nonpayable",
      "type": "function"
    },
    {
      "inputs": [],
      "name": "getAllPolicies",
      "outputs": [
        {
          "components": [
            {
              "internalType": "uint256",
              "name": "policyId",
              "type": "uint256"
            },
            {
              "internalType": "uint256",
              "name": "productId",
              "type": "uint256"
            },
            {
              "internalType": "bytes32",
              "name": "trackingId",
              "type": "bytes32"
            },
            {
              "internalType": "uint256",
              "name": "dateCreated",
              "type": "uint256"
            },
            {
              "internalType": "uint256",
              "name": "value",
              "type": "uint256"
            },
            {
              "internalType": "address payable",
              "name": "insuree",
              "type": "address"
            },
            {
              "internalType": "enum Parcelsure.PolicyState",
              "name": "state",
              "type": "uint8"
            }
          ],
          "internalType": "struct Parcelsure.Policy[]",
          "name": "",
          "type": "tuple[]"
        }
      ],
      "stateMutability": "view",
      "type": "function"
    },
    {
      "inputs": [],
      "name": "getAllProducts",
      "outputs": [
        {
          "components": [
            {
              "internalType": "uint256",
              "name": "productId",
              "type": "uint256"
            },
            {
              "internalType": "address payable",
              "name": "insurer",
              "type": "address"
            },
            {
              "internalType": "uint256",
              "name": "dailyDelayPayoutPercentage",
              "type": "uint256"
            },
            {
              "internalType": "uint256",
              "name": "availCapital",
              "type": "uint256"
            },
            {
              "internalType": "uint128",
              "name": "premiumPercentage",
              "type": "uint128"
            },
            {
              "internalType": "uint128",
              "name": "maxDelayDays",
              "type": "uint128"
            }
          ],
          "internalType": "struct Parcelsure.InsuranceProduct[]",
          "name": "",
          "type": "tuple[]"
        }
      ],
      "stateMutability": "view",
      "type": "function"
    },
    {
      "inputs": [
        {
          "internalType": "address",
          "name": "insuree",
          "type": "address"
        }
      ],
      "name": "getPoliciesByInsuree",
      "outputs": [
        {
          "components": [
            {
              "internalType": "uint256",
              "name": "policyId",
              "type": "uint256"
            },
            {
              "internalType": "uint256",
              "name": "productId",
              "type": "uint256"
            },
            {
              "internalType": "bytes32",
              "name": "trackingId",
              "type": "bytes32"
            },
            {
              "internalType": "uint256",
              "name": "dateCreated",
              "type": "uint256"
            },
            {
              "internalType": "uint256",
              "name": "value",
              "type": "uint256"
            },
            {
              "internalType": "address payable",
              "name": "insuree",
              "type": "address"
            },
            {
              "internalType": "enum Parcelsure.PolicyState",
              "name": "state",
              "type": "uint8"
            }
          ],
          "internalType": "struct Parcelsure.Policy[]",
          "name": "",
          "type": "tuple[]"
        }
      ],
      "stateMutability": "view",
      "type": "function"
    },
    {
      "inputs": [
        {
          "internalType": "address",
          "name": "insurer",
          "type": "address"
        }
      ],
      "name": "getProductsByInsurer",
      "outputs": [
        {
          "components": [
            {
              "internalType": "uint256",
              "name": "productId",
              "type": "uint256"
            },
            {
              "internalType": "address payable",
              "name": "insurer",
              "type": "address"
            },
            {
              "internalType": "uint256",
              "name": "dailyDelayPayoutPercentage",
              "type": "uint256"
            },
            {
              "internalType": "uint256",
              "name": "availCapital",
              "type": "uint256"
            },
            {
              "internalType": "uint128",
              "name": "premiumPercentage",
              "type": "uint128"
            },
            {
              "internalType": "uint128",
              "name": "maxDelayDays",
              "type": "uint128"
            }
          ],
          "internalType": "struct Parcelsure.InsuranceProduct[]",
          "name": "",
          "type": "tuple[]"
        }
      ],
      "stateMutability": "view",
      "type": "function"
    },
    {
      "inputs": [],
      "name": "keeperInterval",
      "outputs": [
        {
          "internalType": "uint256",
          "name": "",
          "type": "uint256"
        }
      ],
      "stateMutability": "view",
      "type": "function"
    },
    {
      "inputs": [],
      "name": "keeperPolicyIndex",
      "outputs": [
        {
          "internalType": "uint256",
          "name": "",
          "type": "uint256"
        }
      ],
      "stateMutability": "view",
      "type": "function"
    },
    {
      "inputs": [],
      "name": "lastTimeStamp",
      "outputs": [
        {
          "internalType": "uint256",
          "name": "",
          "type": "uint256"
        }
      ],
      "stateMutability": "view",
      "type": "function"
    },
    {
      "inputs": [
        {
          "internalType": "bytes",
          "name": "",
          "type": "bytes"
        }
      ],
      "name": "performUpkeep",
      "outputs": [],
      "stateMutability": "nonpayable",
      "type": "function"
    },
    {
      "inputs": [
        {
          "internalType": "uint256",
          "name": "",
          "type": "uint256"
        }
      ],
      "name": "policies",
      "outputs": [
        {
          "internalType": "uint256",
          "name": "policyId",
          "type": "uint256"
        },
        {
          "internalType": "uint256",
          "name": "productId",
          "type": "uint256"
        },
        {
          "internalType": "bytes32",
          "name": "trackingId",
          "type": "bytes32"
        },
        {
          "internalType": "uint256",
          "name": "dateCreated",
          "type": "uint256"
        },
        {
          "internalType": "uint256",
          "name": "value",
          "type": "uint256"
        },
        {
          "internalType": "address payable",
          "name": "insuree",
          "type": "address"
        },
        {
          "internalType": "enum Parcelsure.PolicyState",
          "name": "state",
          "type": "uint8"
        }
      ],
      "stateMutability": "view",
      "type": "function"
    },
    {
      "inputs": [
        {
          "internalType": "uint256",
          "name": "",
          "type": "uint256"
        }
      ],
      "name": "products",
      "outputs": [
        {
          "internalType": "uint256",
          "name": "productId",
          "type": "uint256"
        },
        {
          "internalType": "address payable",
          "name": "insurer",
          "type": "address"
        },
        {
          "internalType": "uint256",
          "name": "dailyDelayPayoutPercentage",
          "type": "uint256"
        },
        {
          "internalType": "uint256",
          "name": "availCapital",
          "type": "uint256"
        },
        {
          "internalType": "uint128",
          "name": "premiumPercentage",
          "type": "uint128"
        },
        {
          "internalType": "uint128",
          "name": "maxDelayDays",
          "type": "uint128"
        }
      ],
      "stateMutability": "view",
      "type": "function"
    },
    {
      "inputs": [
        {
          "internalType": "bytes32",
          "name": "",
          "type": "bytes32"
        }
      ],
      "name": "requestToPolicyId",
      "outputs": [
        {
          "internalType": "uint256",
          "name": "",
          "type": "uint256"
        }
      ],
      "stateMutability": "view",
      "type": "function"
    },
    {
      "inputs": [
        {
          "internalType": "bytes32",
          "name": "trackingId",
          "type": "bytes32"
        }
      ],
      "name": "requestTrackingData",
      "outputs": [
        {
          "internalType": "bytes32",
          "name": "requestId",
          "type": "bytes32"
        }
      ],
      "stateMutability": "nonpayable",
      "type": "function"
    }
  ],
  "bytecode": "0x6101006040526001600455600060075560006008556000600d553480156200002657600080fd5b50733ad58cd3209e843d876cf2f318e1f402be26735973ffffffffffffffffffffffffffffffffffffffff1660808173ffffffffffffffffffffffffffffffffffffffff1660601b815250507f363230323663643632353435343264626237363961313436376465613434353260a08181525050600060c08181525050620000c87301be23585060835e02b77ef475b0cc51aa1e0709620000de60201b60201c565b60b460e0818152505042600c8190555062000122565b80600260006101000a81548173ffffffffffffffffffffffffffffffffffffffff021916908373ffffffffffffffffffffffffffffffffffffffff16021790555050565b60805160601c60a05160c05160e0516134016200016d60003960008181610899015281816109df0152610b6c01526000610d7101526000610cb201526000610d4f01526134016000f3fe6080604052600436106100f35760003560e01c8063759cac891161008a578063abae427411610059578063abae427414610358578063bb20f8d814610395578063bb8c689b146103b1578063d3e89483146103cd576100f3565b8063759cac89146102735780637acc0b20146102b0578063824c405f146102f25780638fd4d31e1461032f576100f3565b8063457e5521116100c6578063457e5521146101b65780634585e33b146101e157806362c7184c1461020a5780636e04ff0d14610235576100f3565b806302ee3a52146100f85780630cedc701146101235780633f3b3b271461016057806341f1da011461018b575b600080fd5b34801561010457600080fd5b5061010d610410565b60405161011a9190612a67565b60405180910390f35b34801561012f57600080fd5b5061014a600480360381019061014591906123d3565b610577565b6040516101579190612a67565b60405180910390f35b34801561016c57600080fd5b50610175610891565b6040516101829190612b7b565b60405180910390f35b34801561019757600080fd5b506101a0610897565b6040516101ad9190612b7b565b60405180910390f35b3480156101c257600080fd5b506101cb6108bb565b6040516101d89190612a89565b60405180910390f35b3480156101ed57600080fd5b50610208600480360381019061020391906124c1565b6109dd565b005b34801561021657600080fd5b5061021f610b5e565b60405161022c9190612b7b565b60405180910390f35b34801561024157600080fd5b5061025c600480360381019061025791906124c1565b610b64565b60405161026a929190612aab565b60405180910390f35b34801561027f57600080fd5b5061029a6004803603810190610295919061242d565b610bee565b6040516102a79190612b7b565b60405180910390f35b3480156102bc57600080fd5b506102d760048036038101906102d2919061250e565b610c06565b6040516102e996959493929190612b96565b60405180910390f35b3480156102fe57600080fd5b506103196004803603810190610314919061242d565b610caa565b6040516103269190612adb565b60405180910390f35b34801561033b57600080fd5b506103566004803603810190610351919061245a565b610d9d565b005b34801561036457600080fd5b5061037f600480360381019061037a91906123d3565b6110ce565b60405161038c9190612a89565b60405180910390f35b6103af60048036038101906103aa919061258e565b6113a3565b005b6103cb60048036038101906103c6919061253b565b61159c565b005b3480156103d957600080fd5b506103f460048036038101906103ef919061250e565b611926565b6040516104079796959493929190612bf7565b60405180910390f35b60606009805480602002602001604051908101604052809291908181526020016000905b8282101561056e57838290600052602060002090600502016040518060c0016040529081600082015481526020016001820160009054906101000a900473ffffffffffffffffffffffffffffffffffffffff1673ffffffffffffffffffffffffffffffffffffffff1673ffffffffffffffffffffffffffffffffffffffff16815260200160028201548152602001600382015481526020016004820160009054906101000a90046fffffffffffffffffffffffffffffffff166fffffffffffffffffffffffffffffffff166fffffffffffffffffffffffffffffffff1681526020016004820160109054906101000a90046fffffffffffffffffffffffffffffffff166fffffffffffffffffffffffffffffffff166fffffffffffffffffffffffffffffffff168152505081526020019060010190610434565b50505050905090565b6060600080600090505b600980549050811015610629578373ffffffffffffffffffffffffffffffffffffffff16600982815481106105b9576105b8613204565b5b906000526020600020906005020160010160009054906101000a900473ffffffffffffffffffffffffffffffffffffffff1673ffffffffffffffffffffffffffffffffffffffff161415610616578180610612906130c5565b9250505b8080610621906130c5565b915050610581565b5060008167ffffffffffffffff81111561064657610645613233565b5b60405190808252806020026020018201604052801561067f57816020015b61066c6121b5565b8152602001906001900390816106645790505b509050600080600090505b600980549050811015610885578573ffffffffffffffffffffffffffffffffffffffff16600982815481106106c2576106c1613204565b5b906000526020600020906005020160010160009054906101000a900473ffffffffffffffffffffffffffffffffffffffff1673ffffffffffffffffffffffffffffffffffffffff161415610872576009818154811061072457610723613204565b5b90600052602060002090600502016040518060c0016040529081600082015481526020016001820160009054906101000a900473ffffffffffffffffffffffffffffffffffffffff1673ffffffffffffffffffffffffffffffffffffffff1673ffffffffffffffffffffffffffffffffffffffff16815260200160028201548152602001600382015481526020016004820160009054906101000a90046fffffffffffffffffffffffffffffffff166fffffffffffffffffffffffffffffffff166fffffffffffffffffffffffffffffffff1681526020016004820160109054906101000a90046fffffffffffffffffffffffffffffffff166fffffffffffffffffffffffffffffffff166fffffffffffffffffffffffffffffffff168152505083838151811061085857610857613204565b5b6020026020010181905250818061086e906130c5565b9250505b808061087d906130c5565b91505061068a565b50819350505050919050565b600c5481565b7f000000000000000000000000000000000000000000000000000000000000000081565b6060600a805480602002602001604051908101604052809291908181526020016000905b828210156109d457838290600052602060002090600602016040518060e001604052908160008201548152602001600182015481526020016002820154815260200160038201548152602001600482015481526020016005820160009054906101000a900473ffffffffffffffffffffffffffffffffffffffff1673ffffffffffffffffffffffffffffffffffffffff1673ffffffffffffffffffffffffffffffffffffffff1681526020016005820160149054906101000a900460ff1660018111156109af576109ae6131d5565b5b60018111156109c1576109c06131d5565b5b81525050815260200190600101906108df565b50505050905090565b7f0000000000000000000000000000000000000000000000000000000000000000600c5442610a0c9190612f57565b118015610a1f5750600a80549050600d54145b15610a385742600c819055506000600d81905550610b5a565b6000600d5490505b600a80549050811015610b58576001600a80549050610a5f9190612f57565b811415610a7f576001600a80549050610a789190612f57565b600d819055505b600180811115610a9257610a916131d5565b5b600a8281548110610aa657610aa5613204565b5b906000526020600020906006020160050160149054906101000a900460ff166001811115610ad757610ad66131d5565b5b1415610ae257610b45565b6000610b12600a8381548110610afb57610afa613204565b5b906000526020600020906006020160020154610caa565b905081600b600083815260200190815260200160002081905550600182610b399190612d05565b600d8190555050610b58565b8080610b50906130c5565b915050610a40565b505b5050565b600d5481565b6000606060007f0000000000000000000000000000000000000000000000000000000000000000600c5442610b999190612f57565b11905080925084848080601f016020809104026020016040519081016040528093929190818152602001838380828437600081840152601f19601f820116905080830192505050505050509150509250929050565b600b6020528060005260406000206000915090505481565b60098181548110610c1657600080fd5b90600052602060002090600502016000915090508060000154908060010160009054906101000a900473ffffffffffffffffffffffffffffffffffffffff16908060020154908060030154908060040160009054906101000a90046fffffffffffffffffffffffffffffffff16908060040160109054906101000a90046fffffffffffffffffffffffffffffffff16905086565b600080610cdf7f000000000000000000000000000000000000000000000000000000000000000030638fd4d31e60e01b6119a5565b9050610d4a6040518060400160405280600a81526020017f747261636b696e6749640000000000000000000000000000000000000000000081525084604051602001610d2b919061295d565b604051602081830303815290604052836119d69092919063ffffffff16565b610d957f0000000000000000000000000000000000000000000000000000000000000000827f0000000000000000000000000000000000000000000000000000000000000000611a09565b915050919050565b836005600082815260200190815260200160002060009054906101000a900473ffffffffffffffffffffffffffffffffffffffff1673ffffffffffffffffffffffffffffffffffffffff163373ffffffffffffffffffffffffffffffffffffffff1614610e3f576040517f08c379a0000000000000000000000000000000000000000000000000000000008152600401610e3690612b5b565b60405180910390fd5b6005600082815260200190815260200160002060006101000a81549073ffffffffffffffffffffffffffffffffffffffff0219169055807f7cc135e0cebb02c3480ae5d74d377283180a2601f8f644edf7987b009316c63a60405160405180910390a27ff6c97ad7b45ae2fef5d75900761626c97d60894abff689ffc7f5ee586b191baf85858585604051610ed79493929190612af6565b60405180910390a16000600b60008781526020019081526020016000205490506000600a8281548110610f0d57610f0c613204565b5b90600052602060002090600602019050600081600101549050600060098281548110610f3c57610f3b613204565b5b906000526020600020906005020190506001881415610f8b5760018360050160146101000a81548160ff02191690836001811115610f7d57610f7c6131d5565b5b0217905550505050506110c7565b858711156110c25760008688610fa19190612f57565b90508160040160109054906101000a90046fffffffffffffffffffffffffffffffff166fffffffffffffffffffffffffffffffff168111156110145760018460050160146101000a81548160ff02191690836001811115611005576110046131d5565b5b021790555050505050506110c7565b60006127108360020154866004015461102d9190612efd565b6110379190612d5b565b90508083600301600082825461104d9190612f57565b925050819055508460050160009054906101000a900473ffffffffffffffffffffffffffffffffffffffff1673ffffffffffffffffffffffffffffffffffffffff166108fc829081150290604051600060405180830381858888f193505050501580156110be573d6000803e3d6000fd5b5050505b505050505b5050505050565b6060600080600090505b600a80549050811015611180578373ffffffffffffffffffffffffffffffffffffffff16600a82815481106111105761110f613204565b5b906000526020600020906006020160050160009054906101000a900473ffffffffffffffffffffffffffffffffffffffff1673ffffffffffffffffffffffffffffffffffffffff16141561116d578180611169906130c5565b9250505b8080611178906130c5565b9150506110d8565b5060008167ffffffffffffffff81111561119d5761119c613233565b5b6040519080825280602002602001820160405280156111d657816020015b6111c3612225565b8152602001906001900390816111bb5790505b509050600080600090505b600a80549050811015611397578573ffffffffffffffffffffffffffffffffffffffff16600a828154811061121957611218613204565b5b906000526020600020906006020160050160009054906101000a900473ffffffffffffffffffffffffffffffffffffffff1673ffffffffffffffffffffffffffffffffffffffff16141561138457600a818154811061127b5761127a613204565b5b90600052602060002090600602016040518060e001604052908160008201548152602001600182015481526020016002820154815260200160038201548152602001600482015481526020016005820160009054906101000a900473ffffffffffffffffffffffffffffffffffffffff1673ffffffffffffffffffffffffffffffffffffffff1673ffffffffffffffffffffffffffffffffffffffff1681526020016005820160149054906101000a900460ff166001811115611341576113406131d5565b5b6001811115611353576113526131d5565b5b8152505083838151811061136a57611369613204565b5b60200260200101819052508180611380906130c5565b9250505b808061138f906130c5565b9150506111e1565b50819350505050919050565b6000826fffffffffffffffffffffffffffffffff16116113c257600080fd5b6000816fffffffffffffffffffffffffffffffff161180156113f7575061016d816fffffffffffffffffffffffffffffffff16105b61140057600080fd5b60006040518060c0016040528060075481526020013373ffffffffffffffffffffffffffffffffffffffff168152602001858152602001348152602001846fffffffffffffffffffffffffffffffff168152602001836fffffffffffffffffffffffffffffffff16815250905060098190806001815401808255809150506001900390600052602060002090600502016000909190919091506000820151816000015560208201518160010160006101000a81548173ffffffffffffffffffffffffffffffffffffffff021916908373ffffffffffffffffffffffffffffffffffffffff160217905550604082015181600201556060820151816003015560808201518160040160006101000a8154816fffffffffffffffffffffffffffffffff02191690836fffffffffffffffffffffffffffffffff16021790555060a08201518160040160106101000a8154816fffffffffffffffffffffffffffffffff02191690836fffffffffffffffffffffffffffffffff160217905550505060076000815480929190611591906130c5565b919050555050505050565b60006040518060e0016040528060085481526020018581526020018481526020014281526020018381526020013373ffffffffffffffffffffffffffffffffffffffff168152602001600060018111156115f9576115f86131d5565b5b81525090506000600982602001518154811061161857611617613204565b5b90600052602060002090600502016040518060c0016040529081600082015481526020016001820160009054906101000a900473ffffffffffffffffffffffffffffffffffffffff1673ffffffffffffffffffffffffffffffffffffffff1673ffffffffffffffffffffffffffffffffffffffff16815260200160028201548152602001600382015481526020016004820160009054906101000a90046fffffffffffffffffffffffffffffffff166fffffffffffffffffffffffffffffffff166fffffffffffffffffffffffffffffffff1681526020016004820160109054906101000a90046fffffffffffffffffffffffffffffffff166fffffffffffffffffffffffffffffffff166fffffffffffffffffffffffffffffffff16815250509050600061271082608001516fffffffffffffffffffffffffffffffff1684608001516117669190612efd565b6117709190612d5b565b9050600081116117ac576040517f1e10d7bd00000000000000000000000000000000000000000000000000000000815260040160405180910390fd5b803410156117e6576040517f5522d76d00000000000000000000000000000000000000000000000000000000815260040160405180910390fd5b600a839080600181540180825580915050600190039060005260206000209060060201600090919091909150600082015181600001556020820151816001015560408201518160020155606082015181600301556080820151816004015560a08201518160050160006101000a81548173ffffffffffffffffffffffffffffffffffffffff021916908373ffffffffffffffffffffffffffffffffffffffff16021790555060c08201518160050160146101000a81548160ff021916908360018111156118b6576118b56131d5565b5b02179055505050600860008154809291906118d0906130c5565b91905055503373ffffffffffffffffffffffffffffffffffffffff168360000151877fa1e004b771d2bfa9498a1f952d363a2b88201b708e272e7bdd675dfa7941e36560405160405180910390a4505050505050565b600a818154811061193657600080fd5b90600052602060002090600602016000915090508060000154908060010154908060020154908060030154908060040154908060050160009054906101000a900473ffffffffffffffffffffffffffffffffffffffff16908060050160149054906101000a900460ff16905087565b6119ad61228d565b6119b561228d565b6119cc85858584611ad5909392919063ffffffff16565b9150509392505050565b6119ed828460800151611b8590919063ffffffff16565b611a04818460800151611b8590919063ffffffff16565b505050565b6000806004549050600181611a1e9190612d05565b6004819055506000634042994660e01b60008087600001513089604001518760018c6080015160000151604051602401611a5f9897969594939291906129a4565b604051602081830303815290604052907bffffffffffffffffffffffffffffffffffffffffffffffffffffffff19166020820180517bffffffffffffffffffffffffffffffffffffffffffffffffffffffff83818316178352505050509050611aca86838684611baa565b925050509392505050565b611add61228d565b611aed8560800151610100611d4e565b508385600001818152505082856020019073ffffffffffffffffffffffffffffffffffffffff16908173ffffffffffffffffffffffffffffffffffffffff16815250508185604001907bffffffffffffffffffffffffffffffffffffffffffffffffffffffff191690817bffffffffffffffffffffffffffffffffffffffffffffffffffffffff191681525050849050949350505050565b611b928260038351611db8565b611ba58183611f3d90919063ffffffff16565b505050565b60003084604051602001611bbf929190612978565b604051602081830303815290604052805190602001209050846005600083815260200190815260200160002060006101000a81548173ffffffffffffffffffffffffffffffffffffffff021916908373ffffffffffffffffffffffffffffffffffffffff160217905550807fb5e6e01e79f91267dc17b4e6314d5d4d03593d2ceee0fbb452b750bd70ea5af960405160405180910390a2600260009054906101000a900473ffffffffffffffffffffffffffffffffffffffff1673ffffffffffffffffffffffffffffffffffffffff16634000aea08685856040518463ffffffff1660e01b8152600401611cb593929190612a29565b602060405180830381600087803b158015611ccf57600080fd5b505af1158015611ce3573d6000803e3d6000fd5b505050506040513d601f19601f82011682018060405250810190611d079190612400565b611d46576040517f08c379a0000000000000000000000000000000000000000000000000000000008152600401611d3d90612b3b565b60405180910390fd5b949350505050565b611d566122fa565b6000602083611d659190613146565b14611d9157602082611d779190613146565b6020611d839190612f57565b82611d8e9190612d05565b91505b81836020018181525050604051808452600081528281016020016040525082905092915050565b60178167ffffffffffffffff1611611def57611de98160058460ff16901b60ff161784611f5f90919063ffffffff16565b50611f38565b60ff8167ffffffffffffffff1611611e4557611e1e601860058460ff16901b1784611f5f90919063ffffffff16565b50611e3f8167ffffffffffffffff16600185611f7f9092919063ffffffff16565b50611f37565b61ffff8167ffffffffffffffff1611611e9c57611e75601960058460ff16901b1784611f5f90919063ffffffff16565b50611e968167ffffffffffffffff16600285611f7f9092919063ffffffff16565b50611f36565b63ffffffff8167ffffffffffffffff1611611ef557611ece601a60058460ff16901b1784611f5f90919063ffffffff16565b50611eef8167ffffffffffffffff16600485611f7f9092919063ffffffff16565b50611f35565b611f12601b60058460ff16901b1784611f5f90919063ffffffff16565b50611f338167ffffffffffffffff16600885611f7f9092919063ffffffff16565b505b5b5b5b505050565b611f456122fa565b611f5783846000015151848551611fa1565b905092915050565b611f676122fa565b611f778384600001515184612090565b905092915050565b611f876122fa565b611f988485600001515185856120e7565b90509392505050565b611fa96122fa565b8251821115611fb757600080fd5b84602001518285611fc89190612d05565b1115611ffd57611ffc856002611fed88602001518887611fe89190612d05565b612175565b611ff79190612efd565b612191565b5b60008086518051876020830101935080888701111561201c5787860182525b60208701925050505b60208410612063578051825260208261203e9190612d05565b915060208161204d9190612d05565b905060208461205c9190612f57565b9350612025565b60006001856020036101000a03905080198251168184511681811785525050508692505050949350505050565b6120986122fa565b836020015183106120be576120bd84600286602001516120b89190612efd565b612191565b5b83518051602085830101848153818614156120da576001820183525b5050508390509392505050565b6120ef6122fa565b846020015184836121009190612d05565b11156121285761212785600286856121189190612d05565b6121229190612efd565b612191565b5b600060018361010061213a9190612ddf565b6121449190612f57565b905085518386820101858319825116178152815185880111156121675784870182525b505085915050949350505050565b6000818311156121875782905061218b565b8190505b92915050565b6000826000015190506121a48383611d4e565b506121af8382611f3d565b50505050565b6040518060c0016040528060008152602001600073ffffffffffffffffffffffffffffffffffffffff168152602001600081526020016000815260200160006fffffffffffffffffffffffffffffffff16815260200160006fffffffffffffffffffffffffffffffff1681525090565b6040518060e001604052806000815260200160008152602001600080191681526020016000815260200160008152602001600073ffffffffffffffffffffffffffffffffffffffff16815260200160006001811115612287576122866131d5565b5b81525090565b6040518060a0016040528060008019168152602001600073ffffffffffffffffffffffffffffffffffffffff16815260200160007bffffffffffffffffffffffffffffffffffffffffffffffffffffffff19168152602001600081526020016122f46122fa565b81525090565b604051806040016040528060608152602001600081525090565b60008135905061232381613358565b92915050565b6000815190506123388161336f565b92915050565b60008135905061234d81613386565b92915050565b60008083601f84011261236957612368613267565b5b8235905067ffffffffffffffff81111561238657612385613262565b5b6020830191508360018202830111156123a2576123a161326c565b5b9250929050565b6000813590506123b88161339d565b92915050565b6000813590506123cd816133b4565b92915050565b6000602082840312156123e9576123e8613276565b5b60006123f784828501612314565b91505092915050565b60006020828403121561241657612415613276565b5b600061242484828501612329565b91505092915050565b60006020828403121561244357612442613276565b5b60006124518482850161233e565b91505092915050565b6000806000806080858703121561247457612473613276565b5b60006124828782880161233e565b9450506020612493878288016123be565b93505060406124a4878288016123be565b92505060606124b5878288016123be565b91505092959194509250565b600080602083850312156124d8576124d7613276565b5b600083013567ffffffffffffffff8111156124f6576124f5613271565b5b61250285828601612353565b92509250509250929050565b60006020828403121561252457612523613276565b5b6000612532848285016123be565b91505092915050565b60008060006060848603121561255457612553613276565b5b6000612562868287016123be565b93505060206125738682870161233e565b9250506040612584868287016123be565b9150509250925092565b6000806000606084860312156125a7576125a6613276565b5b60006125b5868287016123be565b93505060206125c6868287016123a9565b92505060406125d7868287016123a9565b9150509250925092565b60006125ed8383612801565b60c08301905092915050565b6000612605838361287c565b60e08301905092915050565b61261a81612f9d565b82525050565b61262981612f9d565b82525050565b61263881612f8b565b82525050565b600061264982612c86565b6126538185612cc1565b935061265e83612c66565b8060005b8381101561268f57815161267688826125e1565b975061268183612ca7565b925050600181019050612662565b5085935050505092915050565b60006126a782612c91565b6126b18185612cd2565b93506126bc83612c76565b8060005b838110156126ed5781516126d488826125f9565b97506126df83612cb4565b9250506001810190506126c0565b5085935050505092915050565b61270381612faf565b82525050565b61271281612fbb565b82525050565b61272181612fbb565b82525050565b61273861273382612fbb565b613120565b82525050565b61274781612fc5565b82525050565b600061275882612c9c565b6127628185612ce3565b9350612772818560208601613092565b61277b8161327b565b840191505092915050565b6127976127928261304a565b61310e565b82525050565b6127a68161305c565b82525050565b6127b58161305c565b82525050565b60006127c8602383612cf4565b91506127d3826132a6565b604082019050919050565b60006127eb602883612cf4565b91506127f6826132f5565b604082019050919050565b60c0820160008201516128176000850182612928565b50602082015161282a6020850182612611565b50604082015161283d6040850182612928565b5060608201516128506060850182612928565b506080820151612863608085018261290a565b5060a082015161287660a085018261290a565b50505050565b60e0820160008201516128926000850182612928565b5060208201516128a56020850182612928565b5060408201516128b86040850182612709565b5060608201516128cb6060850182612928565b5060808201516128de6080850182612928565b5060a08201516128f160a0850182612611565b5060c082015161290460c085018261279d565b50505050565b61291381613004565b82525050565b61292281613004565b82525050565b61293181613040565b82525050565b61294081613040565b82525050565b61295761295282613040565b61313c565b82525050565b60006129698284612727565b60208201915081905092915050565b60006129848285612786565b6014820191506129948284612946565b6020820191508190509392505050565b6000610100820190506129ba600083018b61262f565b6129c7602083018a612937565b6129d46040830189612718565b6129e1606083018861262f565b6129ee608083018761273e565b6129fb60a0830186612937565b612a0860c0830185612937565b81810360e0830152612a1a818461274d565b90509998505050505050505050565b6000606082019050612a3e600083018661262f565b612a4b6020830185612937565b8181036040830152612a5d818461274d565b9050949350505050565b60006020820190508181036000830152612a81818461263e565b905092915050565b60006020820190508181036000830152612aa3818461269c565b905092915050565b6000604082019050612ac060008301856126fa565b8181036020830152612ad2818461274d565b90509392505050565b6000602082019050612af06000830184612718565b92915050565b6000608082019050612b0b6000830187612718565b612b186020830186612937565b612b256040830185612937565b612b326060830184612937565b95945050505050565b60006020820190508181036000830152612b54816127bb565b9050919050565b60006020820190508181036000830152612b74816127de565b9050919050565b6000602082019050612b906000830184612937565b92915050565b600060c082019050612bab6000830189612937565b612bb86020830188612620565b612bc56040830187612937565b612bd26060830186612937565b612bdf6080830185612919565b612bec60a0830184612919565b979650505050505050565b600060e082019050612c0c600083018a612937565b612c196020830189612937565b612c266040830188612718565b612c336060830187612937565b612c406080830186612937565b612c4d60a0830185612620565b612c5a60c08301846127ac565b98975050505050505050565b6000819050602082019050919050565b6000819050602082019050919050565b600081519050919050565b600081519050919050565b600081519050919050565b6000602082019050919050565b6000602082019050919050565b600082825260208201905092915050565b600082825260208201905092915050565b600082825260208201905092915050565b600082825260208201905092915050565b6000612d1082613040565b9150612d1b83613040565b9250827fffffffffffffffffffffffffffffffffffffffffffffffffffffffffffffffff03821115612d5057612d4f613177565b5b828201905092915050565b6000612d6682613040565b9150612d7183613040565b925082612d8157612d806131a6565b5b828204905092915050565b6000808291508390505b6001851115612dd657808604811115612db257612db1613177565b5b6001851615612dc15780820291505b8081029050612dcf85613299565b9450612d96565b94509492505050565b6000612dea82613040565b9150612df583613040565b9250612e227fffffffffffffffffffffffffffffffffffffffffffffffffffffffffffffffff8484612e2a565b905092915050565b600082612e3a5760019050612ef6565b81612e485760009050612ef6565b8160018114612e5e5760028114612e6857612e97565b6001915050612ef6565b60ff841115612e7a57612e79613177565b5b8360020a915084821115612e9157612e90613177565b5b50612ef6565b5060208310610133831016604e8410600b8410161715612ecc5782820a905083811115612ec757612ec6613177565b5b612ef6565b612ed98484846001612d8c565b92509050818404811115612ef057612eef613177565b5b81810290505b9392505050565b6000612f0882613040565b9150612f1383613040565b9250817fffffffffffffffffffffffffffffffffffffffffffffffffffffffffffffffff0483118215151615612f4c57612f4b613177565b5b828202905092915050565b6000612f6282613040565b9150612f6d83613040565b925082821015612f8057612f7f613177565b5b828203905092915050565b6000612f9682613020565b9050919050565b6000612fa882613020565b9050919050565b60008115159050919050565b6000819050919050565b60007fffffffff0000000000000000000000000000000000000000000000000000000082169050919050565b6000819050612fff82613344565b919050565b60006fffffffffffffffffffffffffffffffff82169050919050565b600073ffffffffffffffffffffffffffffffffffffffff82169050919050565b6000819050919050565b60006130558261306e565b9050919050565b600061306782612ff1565b9050919050565b600061307982613080565b9050919050565b600061308b82613020565b9050919050565b60005b838110156130b0578082015181840152602081019050613095565b838111156130bf576000848401525b50505050565b60006130d082613040565b91507fffffffffffffffffffffffffffffffffffffffffffffffffffffffffffffffff82141561310357613102613177565b5b600182019050919050565b60006131198261312a565b9050919050565b6000819050919050565b60006131358261328c565b9050919050565b6000819050919050565b600061315182613040565b915061315c83613040565b92508261316c5761316b6131a6565b5b828206905092915050565b7f4e487b7100000000000000000000000000000000000000000000000000000000600052601160045260246000fd5b7f4e487b7100000000000000000000000000000000000000000000000000000000600052601260045260246000fd5b7f4e487b7100000000000000000000000000000000000000000000000000000000600052602160045260246000fd5b7f4e487b7100000000000000000000000000000000000000000000000000000000600052603260045260246000fd5b7f4e487b7100000000000000000000000000000000000000000000000000000000600052604160045260246000fd5b600080fd5b600080fd5b600080fd5b600080fd5b600080fd5b6000601f19601f8301169050919050565b60008160601b9050919050565b60008160011c9050919050565b7f756e61626c6520746f207472616e73666572416e6443616c6c20746f206f726160008201527f636c650000000000000000000000000000000000000000000000000000000000602082015250565b7f536f75726365206d75737420626520746865206f7261636c65206f662074686560008201527f2072657175657374000000000000000000000000000000000000000000000000602082015250565b60028110613355576133546131d5565b5b50565b61336181612f8b565b811461336c57600080fd5b50565b61337881612faf565b811461338357600080fd5b50565b61338f81612fbb565b811461339a57600080fd5b50565b6133a681613004565b81146133b157600080fd5b50565b6133bd81613040565b81146133c857600080fd5b5056fea2646970667358221220670ddfeb1d08c5071cab976219706795609a842e7325c94611e4288e3c2db7fe64736f6c63430008070033",
  "linkReferences": {},
  "deployedLinkReferences": {}
}