{
  "_format": "hh-sol-artifact-1",
  "contractName": "Parcelsure",
  "sourceName": "contracts/Parcelsure.sol",
  "abi": [
    {
      "inputs": [
        {
          "internalType": "uint256",
          "name": "dailyDelayPayout",
          "type": "uint256"
        },
        {
          "internalType": "uint128",
          "name": "premiumPercentage",
          "type": "uint128"
        },
        {
          "internalType": "uint128",
          "name": "maxDelayDays",
          "type": "uint128"
        }
      ],
      "name": "createProduct",
      "outputs": [],
      "stateMutability": "payable",
      "type": "function"
    },
    {
      "inputs": [
        {
          "internalType": "uint256",
          "name": "",
          "type": "uint256"
        }
      ],
      "name": "policies",
      "outputs": [
        {
          "internalType": "uint256",
          "name": "policyId",
          "type": "uint256"
        },
        {
          "internalType": "uint256",
          "name": "productId",
          "type": "uint256"
        },
        {
          "internalType": "uint256",
          "name": "packageId",
          "type": "uint256"
        },
        {
          "internalType": "uint256",
          "name": "dateCreated",
          "type": "uint256"
        },
        {
          "internalType": "uint256",
          "name": "value",
          "type": "uint256"
        }
      ],
      "stateMutability": "view",
      "type": "function"
    },
    {
      "inputs": [],
      "name": "policyId",
      "outputs": [
        {
          "internalType": "uint256",
          "name": "",
          "type": "uint256"
        }
      ],
      "stateMutability": "view",
      "type": "function"
    },
    {
      "inputs": [],
      "name": "productId",
      "outputs": [
        {
          "internalType": "uint256",
          "name": "",
          "type": "uint256"
        }
      ],
      "stateMutability": "view",
      "type": "function"
    },
    {
      "inputs": [
        {
          "internalType": "uint256",
          "name": "",
          "type": "uint256"
        }
      ],
      "name": "products",
      "outputs": [
        {
          "internalType": "uint256",
          "name": "productId",
          "type": "uint256"
        },
        {
          "internalType": "address",
          "name": "insurer",
          "type": "address"
        },
        {
          "internalType": "uint256",
          "name": "dailyDelayPayout",
          "type": "uint256"
        },
        {
          "internalType": "uint256",
          "name": "availCapital",
          "type": "uint256"
        },
        {
          "internalType": "uint128",
          "name": "premiumPercentage",
          "type": "uint128"
        },
        {
          "internalType": "uint128",
          "name": "maxDelayDays",
          "type": "uint128"
        }
      ],
      "stateMutability": "view",
      "type": "function"
    }
  ],
  "bytecode": "0x608060405260008055600060015534801561001957600080fd5b506106db806100296000396000f3fe60806040526004361061004a5760003560e01c80637acc0b201461004f578063bb20f8d814610091578063c5ce3911146100ad578063d3e89483146100d8578063ee89ef3a14610119575b600080fd5b34801561005b57600080fd5b5061007660048036038101906100719190610426565b610144565b604051610088969594939291906104ee565b60405180910390f35b6100ab60048036038101906100a69190610453565b6101d8565b005b3480156100b957600080fd5b506100c26103ba565b6040516100cf91906104d3565b60405180910390f35b3480156100e457600080fd5b506100ff60048036038101906100fa9190610426565b6103c0565b60405161011095949392919061054f565b60405180910390f35b34801561012557600080fd5b5061012e6103f6565b60405161013b91906104d3565b60405180910390f35b60026020528060005260406000206000915090508060000154908060010160009054906101000a900473ffffffffffffffffffffffffffffffffffffffff16908060020154908060030154908060040160009054906101000a90046fffffffffffffffffffffffffffffffff16908060040160109054906101000a90046fffffffffffffffffffffffffffffffff16905086565b6000826fffffffffffffffffffffffffffffffff16116101f757600080fd5b6000816fffffffffffffffffffffffffffffffff1611801561022c575061016d816fffffffffffffffffffffffffffffffff16105b61023557600080fd5b60006040518060c0016040528060005481526020013373ffffffffffffffffffffffffffffffffffffffff168152602001858152602001348152602001846fffffffffffffffffffffffffffffffff168152602001836fffffffffffffffffffffffffffffffff1681525090508060026000805481526020019081526020016000206000820151816000015560208201518160010160006101000a81548173ffffffffffffffffffffffffffffffffffffffff021916908373ffffffffffffffffffffffffffffffffffffffff160217905550604082015181600201556060820151816003015560808201518160040160006101000a8154816fffffffffffffffffffffffffffffffff02191690836fffffffffffffffffffffffffffffffff16021790555060a08201518160040160106101000a8154816fffffffffffffffffffffffffffffffff02191690836fffffffffffffffffffffffffffffffff1602179055509050506000808154809291906103af906105fa565b919050555050505050565b60005481565b60036020528060005260406000206000915090508060000154908060010154908060020154908060030154908060040154905085565b60015481565b60008135905061040b81610677565b92915050565b6000813590506104208161068e565b92915050565b60006020828403121561043c5761043b610672565b5b600061044a84828501610411565b91505092915050565b60008060006060848603121561046c5761046b610672565b5b600061047a86828701610411565b935050602061048b868287016103fc565b925050604061049c868287016103fc565b9150509250925092565b6104af816105a2565b82525050565b6104be816105b4565b82525050565b6104cd816105f0565b82525050565b60006020820190506104e860008301846104c4565b92915050565b600060c08201905061050360008301896104c4565b61051060208301886104a6565b61051d60408301876104c4565b61052a60608301866104c4565b61053760808301856104b5565b61054460a08301846104b5565b979650505050505050565b600060a08201905061056460008301886104c4565b61057160208301876104c4565b61057e60408301866104c4565b61058b60608301856104c4565b61059860808301846104c4565b9695505050505050565b60006105ad826105d0565b9050919050565b60006fffffffffffffffffffffffffffffffff82169050919050565b600073ffffffffffffffffffffffffffffffffffffffff82169050919050565b6000819050919050565b6000610605826105f0565b91507fffffffffffffffffffffffffffffffffffffffffffffffffffffffffffffffff82141561063857610637610643565b5b600182019050919050565b7f4e487b7100000000000000000000000000000000000000000000000000000000600052601160045260246000fd5b600080fd5b610680816105b4565b811461068b57600080fd5b50565b610697816105f0565b81146106a257600080fd5b5056fea264697066735822122030bbbefc2c402848dd9aea65c22ff11d42ec76ff1c098421686e91fac2a71f3964736f6c63430008070033",
  "linkReferences": {},
  "deployedLinkReferences": {}
}