{
  "_format": "hh-sol-artifact-1",
  "contractName": "Parcelsure",
  "sourceName": "contracts/Parcelsure.sol",
  "abi": [
    {
      "inputs": [],
      "stateMutability": "nonpayable",
      "type": "constructor"
    },
    {
      "inputs": [],
      "name": "Parcelsure__PremiumNeedsToBeMoreThanZero",
      "type": "error"
    },
    {
      "inputs": [],
      "name": "Parcelsure__SendMoreETH",
      "type": "error"
    },
    {
      "anonymous": false,
      "inputs": [
        {
          "indexed": true,
          "internalType": "bytes32",
          "name": "id",
          "type": "bytes32"
        }
      ],
      "name": "ChainlinkCancelled",
      "type": "event"
    },
    {
      "anonymous": false,
      "inputs": [
        {
          "indexed": true,
          "internalType": "bytes32",
          "name": "id",
          "type": "bytes32"
        }
      ],
      "name": "ChainlinkFulfilled",
      "type": "event"
    },
    {
      "anonymous": false,
      "inputs": [
        {
          "indexed": true,
          "internalType": "bytes32",
          "name": "id",
          "type": "bytes32"
        }
      ],
      "name": "ChainlinkRequested",
      "type": "event"
    },
    {
      "anonymous": false,
      "inputs": [
        {
          "indexed": true,
          "internalType": "uint256",
          "name": "productId",
          "type": "uint256"
        },
        {
          "indexed": true,
          "internalType": "uint256",
          "name": "policyId",
          "type": "uint256"
        },
        {
          "indexed": true,
          "internalType": "address",
          "name": "insuree",
          "type": "address"
        }
      ],
      "name": "PolicyPurchased",
      "type": "event"
    },
    {
      "anonymous": false,
      "inputs": [
        {
          "indexed": false,
          "internalType": "bytes32",
          "name": "requestId",
          "type": "bytes32"
        },
        {
          "indexed": false,
          "internalType": "uint256",
          "name": "deliveryStatus",
          "type": "uint256"
        },
        {
          "indexed": false,
          "internalType": "uint256",
          "name": "transitTime",
          "type": "uint256"
        },
        {
          "indexed": false,
          "internalType": "uint256",
          "name": "avgTime",
          "type": "uint256"
        }
      ],
      "name": "ReqFulfilled",
      "type": "event"
    },
    {
      "inputs": [
        {
          "internalType": "bytes",
          "name": "checkData",
          "type": "bytes"
        }
      ],
      "name": "checkUpkeep",
      "outputs": [
        {
          "internalType": "bool",
          "name": "upkeepNeeded",
          "type": "bool"
        },
        {
          "internalType": "bytes",
          "name": "performData",
          "type": "bytes"
        }
      ],
      "stateMutability": "view",
      "type": "function"
    },
    {
      "inputs": [
        {
          "internalType": "uint256",
          "name": "productId",
          "type": "uint256"
        },
        {
          "internalType": "bytes32",
          "name": "trackingId",
          "type": "bytes32"
        },
        {
          "internalType": "uint256",
          "name": "value",
          "type": "uint256"
        }
      ],
      "name": "createPolicy",
      "outputs": [],
      "stateMutability": "payable",
      "type": "function"
    },
    {
      "inputs": [
        {
          "internalType": "uint256",
          "name": "dailyDelayPayoutPercentage",
          "type": "uint256"
        },
        {
          "internalType": "uint128",
          "name": "premiumPercentage",
          "type": "uint128"
        },
        {
          "internalType": "uint128",
          "name": "maxDelayDays",
          "type": "uint128"
        }
      ],
      "name": "createProduct",
      "outputs": [],
      "stateMutability": "payable",
      "type": "function"
    },
    {
      "inputs": [
        {
          "internalType": "bytes32",
          "name": "requestId",
          "type": "bytes32"
        },
        {
          "internalType": "uint256",
          "name": "deliveryStatus",
          "type": "uint256"
        },
        {
          "internalType": "uint256",
          "name": "transitTime",
          "type": "uint256"
        },
        {
          "internalType": "uint256",
          "name": "avgTime",
          "type": "uint256"
        }
      ],
      "name": "fulfillTrackingData",
      "outputs": [],
      "stateMutability": "nonpayable",
      "type": "function"
    },
    {
      "inputs": [],
      "name": "keeperInterval",
      "outputs": [
        {
          "internalType": "uint256",
          "name": "",
          "type": "uint256"
        }
      ],
      "stateMutability": "view",
      "type": "function"
    },
    {
      "inputs": [],
      "name": "keeperPolicyIndex",
      "outputs": [
        {
          "internalType": "uint256",
          "name": "",
          "type": "uint256"
        }
      ],
      "stateMutability": "view",
      "type": "function"
    },
    {
      "inputs": [],
      "name": "lastTimeStamp",
      "outputs": [
        {
          "internalType": "uint256",
          "name": "",
          "type": "uint256"
        }
      ],
      "stateMutability": "view",
      "type": "function"
    },
    {
      "inputs": [
        {
          "internalType": "bytes",
          "name": "",
          "type": "bytes"
        }
      ],
      "name": "performUpkeep",
      "outputs": [],
      "stateMutability": "nonpayable",
      "type": "function"
    },
    {
      "inputs": [
        {
          "internalType": "uint256",
          "name": "",
          "type": "uint256"
        }
      ],
      "name": "policies",
      "outputs": [
        {
          "internalType": "uint256",
          "name": "policyId",
          "type": "uint256"
        },
        {
          "internalType": "uint256",
          "name": "productId",
          "type": "uint256"
        },
        {
          "internalType": "bytes32",
          "name": "trackingId",
          "type": "bytes32"
        },
        {
          "internalType": "uint256",
          "name": "dateCreated",
          "type": "uint256"
        },
        {
          "internalType": "uint256",
          "name": "value",
          "type": "uint256"
        },
        {
          "internalType": "address payable",
          "name": "insuree",
          "type": "address"
        },
        {
          "internalType": "enum Parcelsure.PolicyState",
          "name": "state",
          "type": "uint8"
        }
      ],
      "stateMutability": "view",
      "type": "function"
    },
    {
      "inputs": [
        {
          "internalType": "uint256",
          "name": "",
          "type": "uint256"
        }
      ],
      "name": "products",
      "outputs": [
        {
          "internalType": "uint256",
          "name": "productId",
          "type": "uint256"
        },
        {
          "internalType": "address payable",
          "name": "insurer",
          "type": "address"
        },
        {
          "internalType": "uint256",
          "name": "dailyDelayPayoutPercentage",
          "type": "uint256"
        },
        {
          "internalType": "uint256",
          "name": "availCapital",
          "type": "uint256"
        },
        {
          "internalType": "uint128",
          "name": "premiumPercentage",
          "type": "uint128"
        },
        {
          "internalType": "uint128",
          "name": "maxDelayDays",
          "type": "uint128"
        }
      ],
      "stateMutability": "view",
      "type": "function"
    },
    {
      "inputs": [
        {
          "internalType": "bytes32",
          "name": "",
          "type": "bytes32"
        }
      ],
      "name": "requestToPolicyId",
      "outputs": [
        {
          "internalType": "uint256",
          "name": "",
          "type": "uint256"
        }
      ],
      "stateMutability": "view",
      "type": "function"
    },
    {
      "inputs": [
        {
          "internalType": "bytes32",
          "name": "trackingId",
          "type": "bytes32"
        }
      ],
      "name": "requestTrackingData",
      "outputs": [
        {
          "internalType": "bytes32",
          "name": "requestId",
          "type": "bytes32"
        }
      ],
      "stateMutability": "nonpayable",
      "type": "function"
    }
  ],
  "bytecode": "0x6101006040526001600455600060075560006008556000600d5534801561002557600080fd5b50733ad58cd3209e843d876cf2f318e1f402be26735973ffffffffffffffffffffffffffffffffffffffff1660808173ffffffffffffffffffffffffffffffffffffffff1660601b815250507f363230323663643632353435343264626237363961313436376465613434353260a08181525050600060c081815250506100c57301be23585060835e02b77ef475b0cc51aa1e07096100da60201b60201c565b60b460e0818152505042600c8190555061011e565b80600260006101000a81548173ffffffffffffffffffffffffffffffffffffffff021916908373ffffffffffffffffffffffffffffffffffffffff16021790555050565b60805160601c60a05160c05160e051612617610168600039600081816102fc0152818161032001526104ad015260006106b2015260006105f30152600061069001526126176000f3fe6080604052600436106100a75760003560e01c80637acc0b20116100645780637acc0b20146101d1578063824c405f146102135780638fd4d31e14610250578063bb20f8d814610279578063bb8c689b14610295578063d3e89483146102b1576100a7565b80633f3b3b27146100ac57806341f1da01146100d75780634585e33b1461010257806362c7184c1461012b5780636e04ff0d14610156578063759cac8914610194575b600080fd5b3480156100b857600080fd5b506100c16102f4565b6040516100ce9190611e49565b60405180910390f35b3480156100e357600080fd5b506100ec6102fa565b6040516100f99190611e49565b60405180910390f35b34801561010e57600080fd5b5061012960048036038101906101249190611a13565b61031e565b005b34801561013757600080fd5b5061014061049f565b60405161014d9190611e49565b60405180910390f35b34801561016257600080fd5b5061017d60048036038101906101789190611a13565b6104a5565b60405161018b929190611d79565b60405180910390f35b3480156101a057600080fd5b506101bb60048036038101906101b6919061197f565b61052f565b6040516101c89190611e49565b60405180910390f35b3480156101dd57600080fd5b506101f860048036038101906101f39190611a60565b610547565b60405161020a96959493929190611e64565b60405180910390f35b34801561021f57600080fd5b5061023a6004803603810190610235919061197f565b6105eb565b6040516102479190611da9565b60405180910390f35b34801561025c57600080fd5b50610277600480360381019061027291906119ac565b6106de565b005b610293600480360381019061028e9190611ae0565b610a0f565b005b6102af60048036038101906102aa9190611a8d565b610c08565b005b3480156102bd57600080fd5b506102d860048036038101906102d39190611a60565b610f92565b6040516102eb9796959493929190611ec5565b60405180910390f35b600c5481565b7f000000000000000000000000000000000000000000000000000000000000000081565b7f0000000000000000000000000000000000000000000000000000000000000000600c544261034d91906121b3565b1180156103605750600a80549050600d54145b156103795742600c819055506000600d8190555061049b565b6000600d5490505b600a80549050811015610499576001600a805490506103a091906121b3565b8114156103c0576001600a805490506103b991906121b3565b600d819055505b6001808111156103d3576103d2612431565b5b600a82815481106103e7576103e6612460565b5b906000526020600020906006020160050160149054906101000a900460ff16600181111561041857610417612431565b5b141561042357610486565b6000610453600a838154811061043c5761043b612460565b5b9060005260206000209060060201600201546105eb565b905081600b60008381526020019081526020016000208190555060018261047a9190611f61565b600d8190555050610499565b808061049190612321565b915050610381565b505b5050565b600d5481565b6000606060007f0000000000000000000000000000000000000000000000000000000000000000600c54426104da91906121b3565b11905080925084848080601f016020809104026020016040519081016040528093929190818152602001838380828437600081840152601f19601f820116905080830192505050505050509150509250929050565b600b6020528060005260406000206000915090505481565b6009818154811061055757600080fd5b90600052602060002090600502016000915090508060000154908060010160009054906101000a900473ffffffffffffffffffffffffffffffffffffffff16908060020154908060030154908060040160009054906101000a90046fffffffffffffffffffffffffffffffff16908060040160109054906101000a90046fffffffffffffffffffffffffffffffff16905086565b6000806106207f000000000000000000000000000000000000000000000000000000000000000030638fd4d31e60e01b611011565b905061068b6040518060400160405280600a81526020017f747261636b696e674964000000000000000000000000000000000000000000008152508460405160200161066c9190611c6f565b604051602081830303815290604052836110429092919063ffffffff16565b6106d67f0000000000000000000000000000000000000000000000000000000000000000827f0000000000000000000000000000000000000000000000000000000000000000611075565b915050919050565b836005600082815260200190815260200160002060009054906101000a900473ffffffffffffffffffffffffffffffffffffffff1673ffffffffffffffffffffffffffffffffffffffff163373ffffffffffffffffffffffffffffffffffffffff1614610780576040517f08c379a000000000000000000000000000000000000000000000000000000000815260040161077790611e29565b60405180910390fd5b6005600082815260200190815260200160002060006101000a81549073ffffffffffffffffffffffffffffffffffffffff0219169055807f7cc135e0cebb02c3480ae5d74d377283180a2601f8f644edf7987b009316c63a60405160405180910390a27ff6c97ad7b45ae2fef5d75900761626c97d60894abff689ffc7f5ee586b191baf858585856040516108189493929190611dc4565b60405180910390a16000600b60008781526020019081526020016000205490506000600a828154811061084e5761084d612460565b5b9060005260206000209060060201905060008160010154905060006009828154811061087d5761087c612460565b5b9060005260206000209060050201905060018814156108cc5760018360050160146101000a81548160ff021916908360018111156108be576108bd612431565b5b021790555050505050610a08565b85871115610a0357600086886108e291906121b3565b90508160040160109054906101000a90046fffffffffffffffffffffffffffffffff166fffffffffffffffffffffffffffffffff168111156109555760018460050160146101000a81548160ff0219169083600181111561094657610945612431565b5b02179055505050505050610a08565b60006127108360020154866004015461096e9190612159565b6109789190611fb7565b90508083600301600082825461098e91906121b3565b925050819055508460050160009054906101000a900473ffffffffffffffffffffffffffffffffffffffff1673ffffffffffffffffffffffffffffffffffffffff166108fc829081150290604051600060405180830381858888f193505050501580156109ff573d6000803e3d6000fd5b5050505b505050505b5050505050565b6000826fffffffffffffffffffffffffffffffff1611610a2e57600080fd5b6000816fffffffffffffffffffffffffffffffff16118015610a63575061016d816fffffffffffffffffffffffffffffffff16105b610a6c57600080fd5b60006040518060c0016040528060075481526020013373ffffffffffffffffffffffffffffffffffffffff168152602001858152602001348152602001846fffffffffffffffffffffffffffffffff168152602001836fffffffffffffffffffffffffffffffff16815250905060098190806001815401808255809150506001900390600052602060002090600502016000909190919091506000820151816000015560208201518160010160006101000a81548173ffffffffffffffffffffffffffffffffffffffff021916908373ffffffffffffffffffffffffffffffffffffffff160217905550604082015181600201556060820151816003015560808201518160040160006101000a8154816fffffffffffffffffffffffffffffffff02191690836fffffffffffffffffffffffffffffffff16021790555060a08201518160040160106101000a8154816fffffffffffffffffffffffffffffffff02191690836fffffffffffffffffffffffffffffffff160217905550505060076000815480929190610bfd90612321565b919050555050505050565b60006040518060e0016040528060085481526020018581526020018481526020014281526020018381526020013373ffffffffffffffffffffffffffffffffffffffff16815260200160006001811115610c6557610c64612431565b5b815250905060006009826020015181548110610c8457610c83612460565b5b90600052602060002090600502016040518060c0016040529081600082015481526020016001820160009054906101000a900473ffffffffffffffffffffffffffffffffffffffff1673ffffffffffffffffffffffffffffffffffffffff1673ffffffffffffffffffffffffffffffffffffffff16815260200160028201548152602001600382015481526020016004820160009054906101000a90046fffffffffffffffffffffffffffffffff166fffffffffffffffffffffffffffffffff166fffffffffffffffffffffffffffffffff1681526020016004820160109054906101000a90046fffffffffffffffffffffffffffffffff166fffffffffffffffffffffffffffffffff166fffffffffffffffffffffffffffffffff16815250509050600061271082608001516fffffffffffffffffffffffffffffffff168460800151610dd29190612159565b610ddc9190611fb7565b905060008111610e18576040517f1e10d7bd00000000000000000000000000000000000000000000000000000000815260040160405180910390fd5b80341015610e52576040517f5522d76d00000000000000000000000000000000000000000000000000000000815260040160405180910390fd5b600a839080600181540180825580915050600190039060005260206000209060060201600090919091909150600082015181600001556020820151816001015560408201518160020155606082015181600301556080820151816004015560a08201518160050160006101000a81548173ffffffffffffffffffffffffffffffffffffffff021916908373ffffffffffffffffffffffffffffffffffffffff16021790555060c08201518160050160146101000a81548160ff02191690836001811115610f2257610f21612431565b5b0217905550505060086000815480929190610f3c90612321565b91905055503373ffffffffffffffffffffffffffffffffffffffff168360000151877fa1e004b771d2bfa9498a1f952d363a2b88201b708e272e7bdd675dfa7941e36560405160405180910390a4505050505050565b600a8181548110610fa257600080fd5b90600052602060002090600602016000915090508060000154908060010154908060020154908060030154908060040154908060050160009054906101000a900473ffffffffffffffffffffffffffffffffffffffff16908060050160149054906101000a900460ff16905087565b611019611821565b611021611821565b61103885858584611141909392919063ffffffff16565b9150509392505050565b6110598284608001516111f190919063ffffffff16565b6110708184608001516111f190919063ffffffff16565b505050565b600080600454905060018161108a9190611f61565b6004819055506000634042994660e01b60008087600001513089604001518760018c60800151600001516040516024016110cb989796959493929190611cb6565b604051602081830303815290604052907bffffffffffffffffffffffffffffffffffffffffffffffffffffffff19166020820180517bffffffffffffffffffffffffffffffffffffffffffffffffffffffff8381831617835250505050905061113686838684611216565b925050509392505050565b611149611821565b61115985608001516101006113ba565b508385600001818152505082856020019073ffffffffffffffffffffffffffffffffffffffff16908173ffffffffffffffffffffffffffffffffffffffff16815250508185604001907bffffffffffffffffffffffffffffffffffffffffffffffffffffffff191690817bffffffffffffffffffffffffffffffffffffffffffffffffffffffff191681525050849050949350505050565b6111fe8260038351611424565b61121181836115a990919063ffffffff16565b505050565b6000308460405160200161122b929190611c8a565b604051602081830303815290604052805190602001209050846005600083815260200190815260200160002060006101000a81548173ffffffffffffffffffffffffffffffffffffffff021916908373ffffffffffffffffffffffffffffffffffffffff160217905550807fb5e6e01e79f91267dc17b4e6314d5d4d03593d2ceee0fbb452b750bd70ea5af960405160405180910390a2600260009054906101000a900473ffffffffffffffffffffffffffffffffffffffff1673ffffffffffffffffffffffffffffffffffffffff16634000aea08685856040518463ffffffff1660e01b815260040161132193929190611d3b565b602060405180830381600087803b15801561133b57600080fd5b505af115801561134f573d6000803e3d6000fd5b505050506040513d601f19601f820116820180604052508101906113739190611952565b6113b2576040517f08c379a00000000000000000000000000000000000000000000000000000000081526004016113a990611e09565b60405180910390fd5b949350505050565b6113c261188e565b60006020836113d191906123a2565b146113fd576020826113e391906123a2565b60206113ef91906121b3565b826113fa9190611f61565b91505b81836020018181525050604051808452600081528281016020016040525082905092915050565b60178167ffffffffffffffff161161145b576114558160058460ff16901b60ff1617846115cb90919063ffffffff16565b506115a4565b60ff8167ffffffffffffffff16116114b15761148a601860058460ff16901b17846115cb90919063ffffffff16565b506114ab8167ffffffffffffffff166001856115eb9092919063ffffffff16565b506115a3565b61ffff8167ffffffffffffffff1611611508576114e1601960058460ff16901b17846115cb90919063ffffffff16565b506115028167ffffffffffffffff166002856115eb9092919063ffffffff16565b506115a2565b63ffffffff8167ffffffffffffffff16116115615761153a601a60058460ff16901b17846115cb90919063ffffffff16565b5061155b8167ffffffffffffffff166004856115eb9092919063ffffffff16565b506115a1565b61157e601b60058460ff16901b17846115cb90919063ffffffff16565b5061159f8167ffffffffffffffff166008856115eb9092919063ffffffff16565b505b5b5b5b505050565b6115b161188e565b6115c38384600001515184855161160d565b905092915050565b6115d361188e565b6115e383846000015151846116fc565b905092915050565b6115f361188e565b611604848560000151518585611753565b90509392505050565b61161561188e565b825182111561162357600080fd5b846020015182856116349190611f61565b111561166957611668856002611659886020015188876116549190611f61565b6117e1565b6116639190612159565b6117fd565b5b6000808651805187602083010193508088870111156116885787860182525b60208701925050505b602084106116cf57805182526020826116aa9190611f61565b91506020816116b99190611f61565b90506020846116c891906121b3565b9350611691565b60006001856020036101000a03905080198251168184511681811785525050508692505050949350505050565b61170461188e565b8360200151831061172a5761172984600286602001516117249190612159565b6117fd565b5b8351805160208583010184815381861415611746576001820183525b5050508390509392505050565b61175b61188e565b8460200151848361176c9190611f61565b11156117945761179385600286856117849190611f61565b61178e9190612159565b6117fd565b5b60006001836101006117a6919061203b565b6117b091906121b3565b905085518386820101858319825116178152815185880111156117d35784870182525b505085915050949350505050565b6000818311156117f3578290506117f7565b8190505b92915050565b60008260000151905061181083836113ba565b5061181b83826115a9565b50505050565b6040518060a0016040528060008019168152602001600073ffffffffffffffffffffffffffffffffffffffff16815260200160007bffffffffffffffffffffffffffffffffffffffffffffffffffffffff191681526020016000815260200161188861188e565b81525090565b604051806040016040528060608152602001600081525090565b6000815190506118b781612585565b92915050565b6000813590506118cc8161259c565b92915050565b60008083601f8401126118e8576118e7612494565b5b8235905067ffffffffffffffff8111156119055761190461248f565b5b60208301915083600182028301111561192157611920612499565b5b9250929050565b600081359050611937816125b3565b92915050565b60008135905061194c816125ca565b92915050565b600060208284031215611968576119676124a3565b5b6000611976848285016118a8565b91505092915050565b600060208284031215611995576119946124a3565b5b60006119a3848285016118bd565b91505092915050565b600080600080608085870312156119c6576119c56124a3565b5b60006119d4878288016118bd565b94505060206119e58782880161193d565b93505060406119f68782880161193d565b9250506060611a078782880161193d565b91505092959194509250565b60008060208385031215611a2a57611a296124a3565b5b600083013567ffffffffffffffff811115611a4857611a4761249e565b5b611a54858286016118d2565b92509250509250929050565b600060208284031215611a7657611a756124a3565b5b6000611a848482850161193d565b91505092915050565b600080600060608486031215611aa657611aa56124a3565b5b6000611ab48682870161193d565b9350506020611ac5868287016118bd565b9250506040611ad68682870161193d565b9150509250925092565b600080600060608486031215611af957611af86124a3565b5b6000611b078682870161193d565b9350506020611b1886828701611928565b9250506040611b2986828701611928565b9150509250925092565b611b3c816121f9565b82525050565b611b4b816121e7565b82525050565b611b5a8161220b565b82525050565b611b6981612217565b82525050565b611b80611b7b82612217565b61237c565b82525050565b611b8f81612221565b82525050565b6000611ba082611f34565b611baa8185611f3f565b9350611bba8185602086016122ee565b611bc3816124a8565b840191505092915050565b611bdf611bda826122a6565b61236a565b82525050565b611bee816122b8565b82525050565b6000611c01602383611f50565b9150611c0c826124d3565b604082019050919050565b6000611c24602883611f50565b9150611c2f82612522565b604082019050919050565b611c4381612260565b82525050565b611c528161229c565b82525050565b611c69611c648261229c565b612398565b82525050565b6000611c7b8284611b6f565b60208201915081905092915050565b6000611c968285611bce565b601482019150611ca68284611c58565b6020820191508190509392505050565b600061010082019050611ccc600083018b611b42565b611cd9602083018a611c49565b611ce66040830189611b60565b611cf36060830188611b42565b611d006080830187611b86565b611d0d60a0830186611c49565b611d1a60c0830185611c49565b81810360e0830152611d2c8184611b95565b90509998505050505050505050565b6000606082019050611d506000830186611b42565b611d5d6020830185611c49565b8181036040830152611d6f8184611b95565b9050949350505050565b6000604082019050611d8e6000830185611b51565b8181036020830152611da08184611b95565b90509392505050565b6000602082019050611dbe6000830184611b60565b92915050565b6000608082019050611dd96000830187611b60565b611de66020830186611c49565b611df36040830185611c49565b611e006060830184611c49565b95945050505050565b60006020820190508181036000830152611e2281611bf4565b9050919050565b60006020820190508181036000830152611e4281611c17565b9050919050565b6000602082019050611e5e6000830184611c49565b92915050565b600060c082019050611e796000830189611c49565b611e866020830188611b33565b611e936040830187611c49565b611ea06060830186611c49565b611ead6080830185611c3a565b611eba60a0830184611c3a565b979650505050505050565b600060e082019050611eda600083018a611c49565b611ee76020830189611c49565b611ef46040830188611b60565b611f016060830187611c49565b611f0e6080830186611c49565b611f1b60a0830185611b33565b611f2860c0830184611be5565b98975050505050505050565b600081519050919050565b600082825260208201905092915050565b600082825260208201905092915050565b6000611f6c8261229c565b9150611f778361229c565b9250827fffffffffffffffffffffffffffffffffffffffffffffffffffffffffffffffff03821115611fac57611fab6123d3565b5b828201905092915050565b6000611fc28261229c565b9150611fcd8361229c565b925082611fdd57611fdc612402565b5b828204905092915050565b6000808291508390505b60018511156120325780860481111561200e5761200d6123d3565b5b600185161561201d5780820291505b808102905061202b856124c6565b9450611ff2565b94509492505050565b60006120468261229c565b91506120518361229c565b925061207e7fffffffffffffffffffffffffffffffffffffffffffffffffffffffffffffffff8484612086565b905092915050565b6000826120965760019050612152565b816120a45760009050612152565b81600181146120ba57600281146120c4576120f3565b6001915050612152565b60ff8411156120d6576120d56123d3565b5b8360020a9150848211156120ed576120ec6123d3565b5b50612152565b5060208310610133831016604e8410600b84101617156121285782820a905083811115612123576121226123d3565b5b612152565b6121358484846001611fe8565b9250905081840481111561214c5761214b6123d3565b5b81810290505b9392505050565b60006121648261229c565b915061216f8361229c565b9250817fffffffffffffffffffffffffffffffffffffffffffffffffffffffffffffffff04831182151516156121a8576121a76123d3565b5b828202905092915050565b60006121be8261229c565b91506121c98361229c565b9250828210156121dc576121db6123d3565b5b828203905092915050565b60006121f28261227c565b9050919050565b60006122048261227c565b9050919050565b60008115159050919050565b6000819050919050565b60007fffffffff0000000000000000000000000000000000000000000000000000000082169050919050565b600081905061225b82612571565b919050565b60006fffffffffffffffffffffffffffffffff82169050919050565b600073ffffffffffffffffffffffffffffffffffffffff82169050919050565b6000819050919050565b60006122b1826122ca565b9050919050565b60006122c38261224d565b9050919050565b60006122d5826122dc565b9050919050565b60006122e78261227c565b9050919050565b60005b8381101561230c5780820151818401526020810190506122f1565b8381111561231b576000848401525b50505050565b600061232c8261229c565b91507fffffffffffffffffffffffffffffffffffffffffffffffffffffffffffffffff82141561235f5761235e6123d3565b5b600182019050919050565b600061237582612386565b9050919050565b6000819050919050565b6000612391826124b9565b9050919050565b6000819050919050565b60006123ad8261229c565b91506123b88361229c565b9250826123c8576123c7612402565b5b828206905092915050565b7f4e487b7100000000000000000000000000000000000000000000000000000000600052601160045260246000fd5b7f4e487b7100000000000000000000000000000000000000000000000000000000600052601260045260246000fd5b7f4e487b7100000000000000000000000000000000000000000000000000000000600052602160045260246000fd5b7f4e487b7100000000000000000000000000000000000000000000000000000000600052603260045260246000fd5b600080fd5b600080fd5b600080fd5b600080fd5b600080fd5b6000601f19601f8301169050919050565b60008160601b9050919050565b60008160011c9050919050565b7f756e61626c6520746f207472616e73666572416e6443616c6c20746f206f726160008201527f636c650000000000000000000000000000000000000000000000000000000000602082015250565b7f536f75726365206d75737420626520746865206f7261636c65206f662074686560008201527f2072657175657374000000000000000000000000000000000000000000000000602082015250565b6002811061258257612581612431565b5b50565b61258e8161220b565b811461259957600080fd5b50565b6125a581612217565b81146125b057600080fd5b50565b6125bc81612260565b81146125c757600080fd5b50565b6125d38161229c565b81146125de57600080fd5b5056fea2646970667358221220889159fbfb5d7f987d0626d25948cd3f111a03b82fb7f5f143457c59bfe24c5964736f6c63430008070033",
  "linkReferences": {},
  "deployedLinkReferences": {}
}